{
    "contractName": "Timelock",
    "abi": [
        {
            "inputs": [
                {
                    "internalType": "address",
                    "name": "admin_",
                    "type": "address"
                },
                {
                    "internalType": "uint256",
                    "name": "delay_",
                    "type": "uint256"
                }
            ],
            "stateMutability": "nonpayable",
            "type": "constructor"
        },
        {
            "anonymous": false,
            "inputs": [
                {
                    "indexed": false,
                    "internalType": "string",
                    "name": "_string",
                    "type": "string"
                }
            ],
            "name": "Called",
            "type": "event"
        },
        {
            "anonymous": false,
            "inputs": [
                {
                    "indexed": true,
                    "internalType": "bytes32",
                    "name": "txHash",
                    "type": "bytes32"
                },
                {
                    "indexed": true,
                    "internalType": "address",
                    "name": "target",
                    "type": "address"
                },
                {
                    "indexed": false,
                    "internalType": "uint256",
                    "name": "value",
                    "type": "uint256"
                },
                {
                    "indexed": false,
                    "internalType": "string",
                    "name": "signature",
                    "type": "string"
                },
                {
                    "indexed": false,
                    "internalType": "bytes",
                    "name": "data",
                    "type": "bytes"
                },
                {
                    "indexed": false,
                    "internalType": "uint256",
                    "name": "eta",
                    "type": "uint256"
                }
            ],
            "name": "CancelTransaction",
            "type": "event"
        },
        {
            "anonymous": false,
            "inputs": [
                {
                    "indexed": true,
                    "internalType": "address",
                    "name": "target",
                    "type": "address"
                },
                {
                    "indexed": false,
                    "internalType": "uint256",
                    "name": "value",
                    "type": "uint256"
                },
                {
                    "indexed": false,
                    "internalType": "string",
                    "name": "signature",
                    "type": "string"
                },
                {
                    "indexed": false,
                    "internalType": "bytes",
                    "name": "data",
                    "type": "bytes"
                },
                {
                    "indexed": false,
                    "internalType": "uint256",
                    "name": "eta",
                    "type": "uint256"
                }
            ],
            "name": "ExecuteTransaction",
            "type": "event"
        },
        {
            "anonymous": false,
            "inputs": [
                {
                    "indexed": true,
                    "internalType": "address",
                    "name": "newAdmin",
                    "type": "address"
                }
            ],
            "name": "NewAdmin",
            "type": "event"
        },
        {
            "anonymous": false,
            "inputs": [
                {
                    "indexed": true,
                    "internalType": "uint256",
                    "name": "newDelay",
                    "type": "uint256"
                }
            ],
            "name": "NewDelay",
            "type": "event"
        },
        {
            "anonymous": false,
            "inputs": [
                {
                    "indexed": true,
                    "internalType": "address",
                    "name": "newPendingAdmin",
                    "type": "address"
                }
            ],
            "name": "NewPendingAdmin",
            "type": "event"
        },
        {
            "anonymous": false,
            "inputs": [
                {
                    "indexed": true,
                    "internalType": "bytes32",
                    "name": "txHash",
                    "type": "bytes32"
                },
                {
                    "indexed": true,
                    "internalType": "address",
                    "name": "target",
                    "type": "address"
                },
                {
                    "indexed": false,
                    "internalType": "uint256",
                    "name": "value",
                    "type": "uint256"
                },
                {
                    "indexed": false,
                    "internalType": "string",
                    "name": "signature",
                    "type": "string"
                },
                {
                    "indexed": false,
                    "internalType": "bytes",
                    "name": "data",
                    "type": "bytes"
                },
                {
                    "indexed": false,
                    "internalType": "uint256",
                    "name": "eta",
                    "type": "uint256"
                }
            ],
            "name": "QueueTransaction",
            "type": "event"
        },
        {
            "inputs": [],
            "name": "GRACE_PERIOD",
            "outputs": [
                {
                    "internalType": "uint256",
                    "name": "",
                    "type": "uint256"
                }
            ],
            "stateMutability": "view",
            "type": "function",
            "constant": true
        },
        {
            "inputs": [],
            "name": "MAXIMUM_DELAY",
            "outputs": [
                {
                    "internalType": "uint256",
                    "name": "",
                    "type": "uint256"
                }
            ],
            "stateMutability": "view",
            "type": "function",
            "constant": true
        },
        {
            "inputs": [],
            "name": "MINIMUM_DELAY",
            "outputs": [
                {
                    "internalType": "uint256",
                    "name": "",
                    "type": "uint256"
                }
            ],
            "stateMutability": "view",
            "type": "function",
            "constant": true
        },
        {
            "inputs": [],
            "name": "admin",
            "outputs": [
                {
                    "internalType": "address",
                    "name": "",
                    "type": "address"
                }
            ],
            "stateMutability": "view",
            "type": "function",
            "constant": true
        },
        {
            "inputs": [],
            "name": "admin_initialized",
            "outputs": [
                {
                    "internalType": "bool",
                    "name": "",
                    "type": "bool"
                }
            ],
            "stateMutability": "view",
            "type": "function",
            "constant": true
        },
        {
            "inputs": [],
            "name": "delay",
            "outputs": [
                {
                    "internalType": "uint256",
                    "name": "",
                    "type": "uint256"
                }
            ],
            "stateMutability": "view",
            "type": "function",
            "constant": true
        },
        {
            "inputs": [],
            "name": "pendingAdmin",
            "outputs": [
                {
                    "internalType": "address",
                    "name": "",
                    "type": "address"
                }
            ],
            "stateMutability": "view",
            "type": "function",
            "constant": true
        },
        {
            "inputs": [
                {
                    "internalType": "bytes32",
                    "name": "",
                    "type": "bytes32"
                }
            ],
            "name": "queuedTransactions",
            "outputs": [
                {
                    "internalType": "bool",
                    "name": "",
                    "type": "bool"
                }
            ],
            "stateMutability": "view",
            "type": "function",
            "constant": true
        },
        {
            "stateMutability": "payable",
            "type": "receive",
            "payable": true
        },
        {
            "inputs": [
                {
                    "internalType": "uint256",
                    "name": "delay_",
                    "type": "uint256"
                }
            ],
            "name": "setDelay",
            "outputs": [],
            "stateMutability": "nonpayable",
            "type": "function"
        },
        {
            "inputs": [],
            "name": "acceptAdmin",
            "outputs": [],
            "stateMutability": "nonpayable",
            "type": "function"
        },
        {
            "inputs": [
                {
                    "internalType": "address",
                    "name": "pendingAdmin_",
                    "type": "address"
                }
            ],
            "name": "setPendingAdmin",
            "outputs": [],
            "stateMutability": "nonpayable",
            "type": "function"
        },
        {
            "inputs": [
                {
                    "internalType": "address",
                    "name": "target",
                    "type": "address"
                },
                {
                    "internalType": "uint256",
                    "name": "value",
                    "type": "uint256"
                },
                {
                    "internalType": "string",
                    "name": "signature",
                    "type": "string"
                },
                {
                    "internalType": "bytes",
                    "name": "data",
                    "type": "bytes"
                },
                {
                    "internalType": "uint256",
                    "name": "eta",
                    "type": "uint256"
                }
            ],
            "name": "queueTransaction",
            "outputs": [
                {
                    "internalType": "bytes32",
                    "name": "",
                    "type": "bytes32"
                }
            ],
            "stateMutability": "nonpayable",
            "type": "function"
        },
        {
            "inputs": [
                {
                    "internalType": "address",
                    "name": "target",
                    "type": "address"
                },
                {
                    "internalType": "uint256",
                    "name": "value",
                    "type": "uint256"
                },
                {
                    "internalType": "string",
                    "name": "signature",
                    "type": "string"
                },
                {
                    "internalType": "bytes",
                    "name": "data",
                    "type": "bytes"
                },
                {
                    "internalType": "uint256",
                    "name": "eta",
                    "type": "uint256"
                }
            ],
            "name": "cancelTransaction",
            "outputs": [],
            "stateMutability": "nonpayable",
            "type": "function"
        },
        {
            "inputs": [
                {
                    "internalType": "address",
                    "name": "target",
                    "type": "address"
                },
                {
                    "internalType": "uint256",
                    "name": "value",
                    "type": "uint256"
                },
                {
                    "internalType": "string",
                    "name": "signature",
                    "type": "string"
                },
                {
                    "internalType": "bytes",
                    "name": "data",
                    "type": "bytes"
                },
                {
                    "internalType": "uint256",
                    "name": "eta",
                    "type": "uint256"
                }
            ],
            "name": "executeTransaction",
            "outputs": [
                {
                    "internalType": "bytes",
                    "name": "",
                    "type": "bytes"
                }
            ],
            "stateMutability": "payable",
            "type": "function",
            "payable": true
        }
    ],
    "bytecode": "0x608060405234801561001057600080fd5b50604051611e27380380611e278339818101604052604081101561003357600080fd5b81019080805190602001909291908051906020019092919050505060018110156100a8576040517f08c379a0000000000000000000000000000000000000000000000000000000008152600401808060200182810382526037815260200180611df06037913960400191505060405180910390fd5b62278d00811115610104576040517f08c379a000000000000000000000000000000000000000000000000000000000815260040180806020018281038252603b815260200180611db5603b913960400191505060405180910390fd5b816000806101000a81548173ffffffffffffffffffffffffffffffffffffffff021916908373ffffffffffffffffffffffffffffffffffffffff160217905550806002819055506000600360006101000a81548160ff0219169083151502179055505050611c3e806101776000396000f3fe6080604052600436106100e15760003560e01c80636fc1f57e1161007f578063c1a287e211610059578063c1a287e21461077d578063e177246e146107a8578063f2b06537146107e3578063f851a44014610834576100e8565b80636fc1f57e146106fa5780637d645fab14610727578063b1b43ae514610752576100e8565b80633a66f901116100bb5780633a66f901146103445780634dd18bf5146104eb578063591fcdfe1461053c5780636a42b8f8146106cf576100e8565b80630825f38f146100ed5780630e18b681146102ec5780632678224714610303576100e8565b366100e857005b600080fd5b610271600480360360a081101561010357600080fd5b81019080803573ffffffffffffffffffffffffffffffffffffffff169060200190929190803590602001909291908035906020019064010000000081111561014a57600080fd5b82018360208201111561015c57600080fd5b8035906020019184600183028401116401000000008311171561017e57600080fd5b91908080601f016020809104026020016040519081016040528093929190818152602001838380828437600081840152601f19601f820116905080830192505050505050509192919290803590602001906401000000008111156101e157600080fd5b8201836020820111156101f357600080fd5b8035906020019184600183028401116401000000008311171561021557600080fd5b91908080601f016020809104026020016040519081016040528093929190818152602001838380828437600081840152601f19601f82011690508083019250505050505050919291929080359060200190929190505050610875565b6040518080602001828103825283818151815260200191508051906020019080838360005b838110156102b1578082015181840152602081019050610296565b50505050905090810190601f1680156102de5780820380516001836020036101000a031916815260200191505b509250505060405180910390f35b3480156102f857600080fd5b50610301610c84565b005b34801561030f57600080fd5b50610318610e11565b604051808273ffffffffffffffffffffffffffffffffffffffff16815260200191505060405180910390f35b34801561035057600080fd5b506104d5600480360360a081101561036757600080fd5b81019080803573ffffffffffffffffffffffffffffffffffffffff16906020019092919080359060200190929190803590602001906401000000008111156103ae57600080fd5b8201836020820111156103c057600080fd5b803590602001918460018302840111640100000000831117156103e257600080fd5b91908080601f016020809104026020016040519081016040528093929190818152602001838380828437600081840152601f19601f8201169050808301925050505050505091929192908035906020019064010000000081111561044557600080fd5b82018360208201111561045757600080fd5b8035906020019184600183028401116401000000008311171561047957600080fd5b91908080601f016020809104026020016040519081016040528093929190818152602001838380828437600081840152601f19601f82011690508083019250505050505050919291929080359060200190929190505050610e37565b6040518082815260200191505060405180910390f35b3480156104f757600080fd5b5061053a6004803603602081101561050e57600080fd5b81019080803573ffffffffffffffffffffffffffffffffffffffff1690602001909291905050506111e7565b005b34801561054857600080fd5b506106cd600480360360a081101561055f57600080fd5b81019080803573ffffffffffffffffffffffffffffffffffffffff16906020019092919080359060200190929190803590602001906401000000008111156105a657600080fd5b8201836020820111156105b857600080fd5b803590602001918460018302840111640100000000831117156105da57600080fd5b91908080601f016020809104026020016040519081016040528093929190818152602001838380828437600081840152601f19601f8201169050808301925050505050505091929192908035906020019064010000000081111561063d57600080fd5b82018360208201111561064f57600080fd5b8035906020019184600183028401116401000000008311171561067157600080fd5b91908080601f016020809104026020016040519081016040528093929190818152602001838380828437600081840152601f19601f820116905080830192505050505050509192919290803590602001909291905050506113ee565b005b3480156106db57600080fd5b506106e4611722565b6040518082815260200191505060405180910390f35b34801561070657600080fd5b5061070f611728565b60405180821515815260200191505060405180910390f35b34801561073357600080fd5b5061073c61173b565b6040518082815260200191505060405180910390f35b34801561075e57600080fd5b50610767611742565b6040518082815260200191505060405180910390f35b34801561078957600080fd5b50610792611747565b6040518082815260200191505060405180910390f35b3480156107b457600080fd5b506107e1600480360360208110156107cb57600080fd5b810190808035906020019092919050505061174e565b005b3480156107ef57600080fd5b5061081c6004803603602081101561080657600080fd5b81019080803590602001909291905050506118c1565b60405180821515815260200191505060405180910390f35b34801561084057600080fd5b506108496118e1565b604051808273ffffffffffffffffffffffffffffffffffffffff16815260200191505060405180910390f35b60607f3fd5724095fcb65d3b7e6d79ac130db7e9dbf891d59bb0da292d471bc40d564a60405180806020018281038252600f8152602001807f63616c6c65642074696d656c6f636b000000000000000000000000000000000081525060200191505060405180910390a160008054906101000a900473ffffffffffffffffffffffffffffffffffffffff1673ffffffffffffffffffffffffffffffffffffffff163373ffffffffffffffffffffffffffffffffffffffff1614610983576040517f08c379a00000000000000000000000000000000000000000000000000000000081526004018080602001828103825260388152602001806119966038913960400191505060405180910390fd5b606060008551141561099757839050610a33565b84805190602001208460405160200180837bffffffffffffffffffffffffffffffffffffffffffffffffffffffff1916815260040182805190602001908083835b602083106109fb57805182526020820191506020810190506020830392506109d8565b6001836020036101000a0380198251168184511680821785525050505050509050019250505060405160208183030381529060405290505b600060608873ffffffffffffffffffffffffffffffffffffffff1688846040518082805190602001908083835b60208310610a835780518252602082019150602081019050602083039250610a60565b6001836020036101000a03801982511681845116808217855250505050505090500191505060006040518083038185875af1925050503d8060008114610ae5576040519150601f19603f3d011682016040523d82523d6000602084013e610aea565b606091505b509150915081610b45576040517f08c379a000000000000000000000000000000000000000000000000000000000815260040180806020018281038252603d815260200180611b52603d913960400191505060405180910390fd5b8873ffffffffffffffffffffffffffffffffffffffff167f0eb4aa39e9658bc733a883d0dbb8f704db8ca94cf5f836023d31c338ff6f340389898989604051808581526020018060200180602001848152602001838103835286818151815260200191508051906020019080838360005b83811015610bd1578082015181840152602081019050610bb6565b50505050905090810190601f168015610bfe5780820380516001836020036101000a031916815260200191505b50838103825285818151815260200191508051906020019080838360005b83811015610c37578082015181840152602081019050610c1c565b50505050905090810190601f168015610c645780820380516001836020036101000a031916815260200191505b50965050505050505060405180910390a280935050505095945050505050565b600160009054906101000a900473ffffffffffffffffffffffffffffffffffffffff1673ffffffffffffffffffffffffffffffffffffffff163373ffffffffffffffffffffffffffffffffffffffff1614610d2a576040517f08c379a0000000000000000000000000000000000000000000000000000000008152600401808060200182810382526038815260200180611aac6038913960400191505060405180910390fd5b336000806101000a81548173ffffffffffffffffffffffffffffffffffffffff021916908373ffffffffffffffffffffffffffffffffffffffff1602179055506000600160006101000a81548173ffffffffffffffffffffffffffffffffffffffff021916908373ffffffffffffffffffffffffffffffffffffffff16021790555060008054906101000a900473ffffffffffffffffffffffffffffffffffffffff1673ffffffffffffffffffffffffffffffffffffffff167f71614071b88dee5e0b2ae578a9dd7b2ebbe9ae832ba419dc0242cd065a290b6c60405160405180910390a2565b600160009054906101000a900473ffffffffffffffffffffffffffffffffffffffff1681565b60008060009054906101000a900473ffffffffffffffffffffffffffffffffffffffff1673ffffffffffffffffffffffffffffffffffffffff163373ffffffffffffffffffffffffffffffffffffffff1614610ede576040517f08c379a0000000000000000000000000000000000000000000000000000000008152600401808060200182810382526036815260200180611b1c6036913960400191505060405180910390fd5b610efa600254610eec611905565b61190d90919063ffffffff16565b821015610f52576040517f08c379a0000000000000000000000000000000000000000000000000000000008152600401808060200182810382526049815260200180611b8f6049913960600191505060405180910390fd5b60008686868686604051602001808673ffffffffffffffffffffffffffffffffffffffff1681526020018581526020018060200180602001848152602001838103835286818151815260200191508051906020019080838360005b83811015610fc8578082015181840152602081019050610fad565b50505050905090810190601f168015610ff55780820380516001836020036101000a031916815260200191505b50838103825285818151815260200191508051906020019080838360005b8381101561102e578082015181840152602081019050611013565b50505050905090810190601f16801561105b5780820380516001836020036101000a031916815260200191505b5097505050505050505060405160208183030381529060405280519060200120905060016004600083815260200190815260200160002060006101000a81548160ff0219169083151502179055508673ffffffffffffffffffffffffffffffffffffffff16817f76e2796dc3a81d57b0e8504b647febcbeeb5f4af818e164f11eef8131a6a763f88888888604051808581526020018060200180602001848152602001838103835286818151815260200191508051906020019080838360005b8381101561113657808201518184015260208101905061111b565b50505050905090810190601f1680156111635780820380516001836020036101000a031916815260200191505b50838103825285818151815260200191508051906020019080838360005b8381101561119c578082015181840152602081019050611181565b50505050905090810190601f1680156111c95780820380516001836020036101000a031916815260200191505b50965050505050505060405180910390a38091505095945050505050565b600360009054906101000a900460ff1615611285573073ffffffffffffffffffffffffffffffffffffffff163373ffffffffffffffffffffffffffffffffffffffff1614611280576040517f08c379a0000000000000000000000000000000000000000000000000000000008152600401808060200182810382526038815260200180611ae46038913960400191505060405180910390fd5b611345565b60008054906101000a900473ffffffffffffffffffffffffffffffffffffffff1673ffffffffffffffffffffffffffffffffffffffff163373ffffffffffffffffffffffffffffffffffffffff1614611329576040517f08c379a000000000000000000000000000000000000000000000000000000000815260040180806020018281038252603b815260200180611a39603b913960400191505060405180910390fd5b6001600360006101000a81548160ff0219169083151502179055505b80600160006101000a81548173ffffffffffffffffffffffffffffffffffffffff021916908373ffffffffffffffffffffffffffffffffffffffff160217905550600160009054906101000a900473ffffffffffffffffffffffffffffffffffffffff1673ffffffffffffffffffffffffffffffffffffffff167f69d78e38a01985fbb1462961809b4b2d65531bc93b2b94037f3334b82ca4a75660405160405180910390a250565b60008054906101000a900473ffffffffffffffffffffffffffffffffffffffff1673ffffffffffffffffffffffffffffffffffffffff163373ffffffffffffffffffffffffffffffffffffffff1614611492576040517f08c379a00000000000000000000000000000000000000000000000000000000081526004018080602001828103825260378152602001806119ce6037913960400191505060405180910390fd5b60008585858585604051602001808673ffffffffffffffffffffffffffffffffffffffff1681526020018581526020018060200180602001848152602001838103835286818151815260200191508051906020019080838360005b838110156115085780820151818401526020810190506114ed565b50505050905090810190601f1680156115355780820380516001836020036101000a031916815260200191505b50838103825285818151815260200191508051906020019080838360005b8381101561156e578082015181840152602081019050611553565b50505050905090810190601f16801561159b5780820380516001836020036101000a031916815260200191505b5097505050505050505060405160208183030381529060405280519060200120905060006004600083815260200190815260200160002060006101000a81548160ff0219169083151502179055508573ffffffffffffffffffffffffffffffffffffffff16817f2fffc091a501fd91bfbff27141450d3acb40fb8e6d8382b243ec7a812a3aaf8787878787604051808581526020018060200180602001848152602001838103835286818151815260200191508051906020019080838360005b8381101561167657808201518184015260208101905061165b565b50505050905090810190601f1680156116a35780820380516001836020036101000a031916815260200191505b50838103825285818151815260200191508051906020019080838360005b838110156116dc5780820151818401526020810190506116c1565b50505050905090810190601f1680156117095780820380516001836020036101000a031916815260200191505b50965050505050505060405180910390a3505050505050565b60025481565b600360009054906101000a900460ff1681565b62278d0081565b600181565b6212750081565b3073ffffffffffffffffffffffffffffffffffffffff163373ffffffffffffffffffffffffffffffffffffffff16146117d2576040517f08c379a0000000000000000000000000000000000000000000000000000000008152600401808060200182810382526031815260200180611bd86031913960400191505060405180910390fd5b600181101561182c576040517f08c379a0000000000000000000000000000000000000000000000000000000008152600401808060200182810382526034815260200180611a056034913960400191505060405180910390fd5b62278d00811115611888576040517f08c379a0000000000000000000000000000000000000000000000000000000008152600401808060200182810382526038815260200180611a746038913960400191505060405180910390fd5b806002819055506002547f948b1f6a42ee138b7e34058ba85a37f716d55ff25ff05a763f15bed6a04c8d2c60405160405180910390a250565b60046020528060005260406000206000915054906101000a900460ff1681565b60008054906101000a900473ffffffffffffffffffffffffffffffffffffffff1681565b600042905090565b60008082840190508381101561198b576040517f08c379a000000000000000000000000000000000000000000000000000000000815260040180806020018281038252601b8152602001807f536166654d6174683a206164646974696f6e206f766572666c6f77000000000081525060200191505060405180910390fd5b809150509291505056fe54696d656c6f636b3a3a657865637574655472616e73616374696f6e3a2043616c6c206d75737420636f6d652066726f6d2061646d696e2e54696d656c6f636b3a3a63616e63656c5472616e73616374696f6e3a2043616c6c206d75737420636f6d652066726f6d2061646d696e2e54696d656c6f636b3a3a73657444656c61793a2044656c6179206d75737420657863656564206d696e696d756d2064656c61792e54696d656c6f636b3a3a73657450656e64696e6741646d696e3a2046697273742063616c6c206d75737420636f6d652066726f6d2061646d696e2e54696d656c6f636b3a3a73657444656c61793a2044656c6179206d757374206e6f7420657863656564206d6178696d756d2064656c61792e54696d656c6f636b3a3a61636365707441646d696e3a2043616c6c206d75737420636f6d652066726f6d2070656e64696e6741646d696e2e54696d656c6f636b3a3a73657450656e64696e6741646d696e3a2043616c6c206d75737420636f6d652066726f6d2054696d656c6f636b2e54696d656c6f636b3a3a71756575655472616e73616374696f6e3a2043616c6c206d75737420636f6d652066726f6d2061646d696e2e54696d656c6f636b3a3a657865637574655472616e73616374696f6e3a205472616e73616374696f6e20657865637574696f6e2072657665727465642e54696d656c6f636b3a3a71756575655472616e73616374696f6e3a20457374696d6174656420657865637574696f6e20626c6f636b206d75737420736174697366792064656c61792e54696d656c6f636b3a3a73657444656c61793a2043616c6c206d75737420636f6d652066726f6d2054696d656c6f636b2ea264697066735822122046d12aed5b17d03aa98712cbb1d7e331a421abd30fb4b848fae07aa80097da6d64736f6c634300060c003354696d656c6f636b3a3a636f6e7374727563746f723a2044656c6179206d757374206e6f7420657863656564206d6178696d756d2064656c61792e54696d656c6f636b3a3a636f6e7374727563746f723a2044656c6179206d75737420657863656564206d696e696d756d2064656c61792e",
    "immutableReferences": {},
    "source": "// SPDX-License-Identifier: MIT\n\n// COPIED FROM https://github.com/compound-finance/compound-protocol/blob/master/contracts/Governance/GovernorAlpha.sol\n// Copyright 2020 Compound Labs, Inc.\n// Redistribution and use in source and binary forms, with or without modification, are permitted provided that the following conditions are met:\n// 1. Redistributions of source code must retain the above copyright notice, this list of conditions and the following disclaimer.\n// 2. Redistributions in binary form must reproduce the above copyright notice, this list of conditions and the following disclaimer in the documentation and/or other materials provided with the distribution.\n// 3. Neither the name of the copyright holder nor the names of its contributors may be used to endorse or promote products derived from this software without specific prior written permission.\n// THIS SOFTWARE IS PROVIDED BY THE COPYRIGHT HOLDERS AND CONTRIBUTORS \"AS IS\" AND ANY EXPRESS OR IMPLIED WARRANTIES, INCLUDING, BUT NOT LIMITED TO, THE IMPLIED WARRANTIES OF MERCHANTABILITY AND FITNESS FOR A PARTICULAR PURPOSE ARE DISCLAIMED. IN NO EVENT SHALL THE COPYRIGHT HOLDER OR CONTRIBUTORS BE LIABLE FOR ANY DIRECT, INDIRECT, INCIDENTAL, SPECIAL, EXEMPLARY, OR CONSEQUENTIAL DAMAGES (INCLUDING, BUT NOT LIMITED TO, PROCUREMENT OF SUBSTITUTE GOODS OR SERVICES; LOSS OF USE, DATA, OR PROFITS; OR BUSINESS INTERRUPTION) HOWEVER CAUSED AND ON ANY THEORY OF LIABILITY, WHETHER IN CONTRACT, STRICT LIABILITY, OR TORT (INCLUDING NEGLIGENCE OR OTHERWISE) ARISING IN ANY WAY OUT OF THE USE OF THIS SOFTWARE, EVEN IF ADVISED OF THE POSSIBILITY OF SUCH DAMAGE.\n//\n// Ctrl+f for XXX to see all the modifications.\n\n// XXX: pragma solidity ^0.5.16;\npragma solidity 0.6.12;\n\n// XXX: import \"./SafeMath.sol\";\nimport \"@openzeppelin/contracts/math/SafeMath.sol\";\n\n// https://bscscan.com/tx/0xc3ed05231b2bb526ffdbd023de951ce0f8cd29e0023cac05d1d693e64e06a3b7\ncontract Timelock {\n    using SafeMath for uint;\n\n    event NewAdmin(address indexed newAdmin);\n    event NewPendingAdmin(address indexed newPendingAdmin);\n    event NewDelay(uint indexed newDelay);\n    event CancelTransaction(bytes32 indexed txHash, address indexed target, uint value, string signature,  bytes data, uint eta);\n    event ExecuteTransaction(address indexed target, uint value, string signature,  bytes data, uint eta);\n    event QueueTransaction(bytes32 indexed txHash, address indexed target, uint value, string signature, bytes data, uint eta);\n    event Called(string _string);\n    \n    uint public constant GRACE_PERIOD = 14 days;\n    uint public constant MINIMUM_DELAY = 1 seconds;\n    uint public constant MAXIMUM_DELAY = 30 days;\n\n    address public admin;\n    address public pendingAdmin;\n    uint public delay;\n    bool public admin_initialized;\n\n    mapping (bytes32 => bool) public queuedTransactions;\n\n\n    constructor(address admin_, uint delay_) public {\n        require(delay_ >= MINIMUM_DELAY, \"Timelock::constructor: Delay must exceed minimum delay.\");\n        require(delay_ <= MAXIMUM_DELAY, \"Timelock::constructor: Delay must not exceed maximum delay.\");\n\n        admin = admin_;\n        delay = delay_;\n        admin_initialized = false;\n    }\n\n    // XXX: function() external payable { }\n    receive() external payable { }\n\n    function setDelay(uint delay_) public {\n        require(msg.sender == address(this), \"Timelock::setDelay: Call must come from Timelock.\");\n        require(delay_ >= MINIMUM_DELAY, \"Timelock::setDelay: Delay must exceed minimum delay.\");\n        require(delay_ <= MAXIMUM_DELAY, \"Timelock::setDelay: Delay must not exceed maximum delay.\");\n        delay = delay_;\n\n        emit NewDelay(delay);\n    }\n\n    function acceptAdmin() public {\n        require(msg.sender == pendingAdmin, \"Timelock::acceptAdmin: Call must come from pendingAdmin.\");\n        admin = msg.sender;\n        pendingAdmin = address(0);\n\n        emit NewAdmin(admin);\n    }\n\n    function setPendingAdmin(address pendingAdmin_) public {\n        // allows one time setting of admin for deployment purposes\n        if (admin_initialized) {\n            require(msg.sender == address(this), \"Timelock::setPendingAdmin: Call must come from Timelock.\");\n        } else {\n            require(msg.sender == admin, \"Timelock::setPendingAdmin: First call must come from admin.\");\n            admin_initialized = true;\n        }\n        pendingAdmin = pendingAdmin_;\n\n        emit NewPendingAdmin(pendingAdmin);\n    }\n\n    function queueTransaction(address target, uint value, string memory signature, bytes memory data, uint eta) public returns (bytes32) {\n        require(msg.sender == admin, \"Timelock::queueTransaction: Call must come from admin.\");\n        require(eta >= getBlockTimestamp().add(delay), \"Timelock::queueTransaction: Estimated execution block must satisfy delay.\");\n\n        bytes32 txHash = keccak256(abi.encode(target, value, signature, data, eta));\n        queuedTransactions[txHash] = true;\n\n        emit QueueTransaction(txHash, target, value, signature, data, eta);\n        return txHash;\n    }\n\n    function cancelTransaction(address target, uint value, string memory signature, bytes memory data, uint eta) public {\n        require(msg.sender == admin, \"Timelock::cancelTransaction: Call must come from admin.\");\n\n        bytes32 txHash = keccak256(abi.encode(target, value, signature, data, eta));\n        queuedTransactions[txHash] = false;\n\n        emit CancelTransaction(txHash, target, value, signature, data, eta);\n    }\n\n    function executeTransaction(address target, uint value, string memory signature, bytes memory data, uint eta) public payable returns (bytes memory) {\n        emit Called(\"called timelock\");\n        require(msg.sender == admin, \"Timelock::executeTransaction: Call must come from admin.\");\n\n        //bytes32 txHash = keccak256(abi.encode(target, value, signature, data, eta));\n        //require(queuedTransactions[txHash], \"Timelock::executeTransaction: Transaction hasn't been queued.\");\n        //require(getBlockTimestamp() >= eta, \"Timelock::executeTransaction: Transaction hasn't surpassed time lock.\");\n        //require(getBlockTimestamp() <= eta.add(GRACE_PERIOD), \"Timelock::executeTransaction: Transaction is stale.\");\n\n        //queuedTransactions[txHash] = false;\n\n        bytes memory callData;\n\n        if (bytes(signature).length == 0) {\n            callData = data;\n        } else {\n            callData = abi.encodePacked(bytes4(keccak256(bytes(signature))), data);\n        }\n\n        // solium-disable-next-line security/no-call-value\n        (bool success, bytes memory returnData) = target.call{value: value}(callData);\n        require(success, \"Timelock::executeTransaction: Transaction execution reverted.\");\n\n        emit ExecuteTransaction(target, value, signature, data, eta);\n\n        return returnData;\n    }\n\n    function getBlockTimestamp() internal view returns (uint) {\n        // solium-disable-next-line security/no-block-members\n        return block.timestamp;\n    }\n}",
    "sourcePath": "/home/jordi/Projects/farm/goose-contracts/contracts/Timelock.sol",
    "compiler": {
        "name": "solc",
        "version": "0.6.12+commit.27d51765.Emscripten.clang"
    },
    "schemaVersion": "3.3.4",
    "updatedAt": "2021-04-15T15:50:23.509Z",
    "networkType": "ethereum",
    "devdoc": {
        "kind": "dev",
        "methods": {},
        "version": 1
    },
    "userdoc": {
        "kind": "user",
        "methods": {},
        "version": 1
    }
}